{
	"data": {
		"bytecode": {
			"linkReferences": {},
			"object": "608060405234801561001057600080fd5b506103b0806100206000396000f3fe60806040526004361061001e5760003560e01c80639189fec114610023575b600080fd5b61003d6004803603810190610038919061015b565b61003f565b005b60006001600a4233604051602001610058929190610223565b6040516020818303038152906040528051906020012060001c61007b919061027e565b61008591906102de565b9050808214156100df57336000806101000a81548173ffffffffffffffffffffffffffffffffffffffff021916908373ffffffffffffffffffffffffffffffffffffffff160217905550670de0b6b3a76400006001819055505b7f03a04f867e9627f1c5e7070f2c5cd870e2ea1df3e99b1781831a085485d70f36818360015460405161011493929190610343565b60405180910390a15050565b600080fd5b6000819050919050565b61013881610125565b811461014357600080fd5b50565b6000813590506101558161012f565b92915050565b60006020828403121561017157610170610120565b5b600061017f84828501610146565b91505092915050565b6000819050919050565b6101a361019e82610125565b610188565b82525050565b600073ffffffffffffffffffffffffffffffffffffffff82169050919050565b60006101d4826101a9565b9050919050565b60008160601b9050919050565b60006101f3826101db565b9050919050565b6000610205826101e8565b9050919050565b61021d610218826101c9565b6101fa565b82525050565b600061022f8285610192565b60208201915061023f828461020c565b6014820191508190509392505050565b7f4e487b7100000000000000000000000000000000000000000000000000000000600052601260045260246000fd5b600061028982610125565b915061029483610125565b9250826102a4576102a361024f565b5b828206905092915050565b7f4e487b7100000000000000000000000000000000000000000000000000000000600052601160045260246000fd5b60006102e982610125565b91506102f483610125565b9250827fffffffffffffffffffffffffffffffffffffffffffffffffffffffffffffffff03821115610329576103286102af565b5b828201905092915050565b61033d81610125565b82525050565b60006060820190506103586000830186610334565b6103656020830185610334565b6103726040830184610334565b94935050505056fea26469706673582212203a172b72975fa563d6fc7bb4a994438bf8a8b52232a9db9cf9b6fae0e203bafd64736f6c634300080b0033",
			"opcodes": "PUSH1 0x80 PUSH1 0x40 MSTORE CALLVALUE DUP1 ISZERO PUSH2 0x10 JUMPI PUSH1 0x0 DUP1 REVERT JUMPDEST POP PUSH2 0x3B0 DUP1 PUSH2 0x20 PUSH1 0x0 CODECOPY PUSH1 0x0 RETURN INVALID PUSH1 0x80 PUSH1 0x40 MSTORE PUSH1 0x4 CALLDATASIZE LT PUSH2 0x1E JUMPI PUSH1 0x0 CALLDATALOAD PUSH1 0xE0 SHR DUP1 PUSH4 0x9189FEC1 EQ PUSH2 0x23 JUMPI JUMPDEST PUSH1 0x0 DUP1 REVERT JUMPDEST PUSH2 0x3D PUSH1 0x4 DUP1 CALLDATASIZE SUB DUP2 ADD SWAP1 PUSH2 0x38 SWAP2 SWAP1 PUSH2 0x15B JUMP JUMPDEST PUSH2 0x3F JUMP JUMPDEST STOP JUMPDEST PUSH1 0x0 PUSH1 0x1 PUSH1 0xA TIMESTAMP CALLER PUSH1 0x40 MLOAD PUSH1 0x20 ADD PUSH2 0x58 SWAP3 SWAP2 SWAP1 PUSH2 0x223 JUMP JUMPDEST PUSH1 0x40 MLOAD PUSH1 0x20 DUP2 DUP4 SUB SUB DUP2 MSTORE SWAP1 PUSH1 0x40 MSTORE DUP1 MLOAD SWAP1 PUSH1 0x20 ADD KECCAK256 PUSH1 0x0 SHR PUSH2 0x7B SWAP2 SWAP1 PUSH2 0x27E JUMP JUMPDEST PUSH2 0x85 SWAP2 SWAP1 PUSH2 0x2DE JUMP JUMPDEST SWAP1 POP DUP1 DUP3 EQ ISZERO PUSH2 0xDF JUMPI CALLER PUSH1 0x0 DUP1 PUSH2 0x100 EXP DUP2 SLOAD DUP2 PUSH20 0xFFFFFFFFFFFFFFFFFFFFFFFFFFFFFFFFFFFFFFFF MUL NOT AND SWAP1 DUP4 PUSH20 0xFFFFFFFFFFFFFFFFFFFFFFFFFFFFFFFFFFFFFFFF AND MUL OR SWAP1 SSTORE POP PUSH8 0xDE0B6B3A7640000 PUSH1 0x1 DUP2 SWAP1 SSTORE POP JUMPDEST PUSH32 0x3A04F867E9627F1C5E7070F2C5CD870E2EA1DF3E99B1781831A085485D70F36 DUP2 DUP4 PUSH1 0x1 SLOAD PUSH1 0x40 MLOAD PUSH2 0x114 SWAP4 SWAP3 SWAP2 SWAP1 PUSH2 0x343 JUMP JUMPDEST PUSH1 0x40 MLOAD DUP1 SWAP2 SUB SWAP1 LOG1 POP POP JUMP JUMPDEST PUSH1 0x0 DUP1 REVERT JUMPDEST PUSH1 0x0 DUP2 SWAP1 POP SWAP2 SWAP1 POP JUMP JUMPDEST PUSH2 0x138 DUP2 PUSH2 0x125 JUMP JUMPDEST DUP2 EQ PUSH2 0x143 JUMPI PUSH1 0x0 DUP1 REVERT JUMPDEST POP JUMP JUMPDEST PUSH1 0x0 DUP2 CALLDATALOAD SWAP1 POP PUSH2 0x155 DUP2 PUSH2 0x12F JUMP JUMPDEST SWAP3 SWAP2 POP POP JUMP JUMPDEST PUSH1 0x0 PUSH1 0x20 DUP3 DUP5 SUB SLT ISZERO PUSH2 0x171 JUMPI PUSH2 0x170 PUSH2 0x120 JUMP JUMPDEST JUMPDEST PUSH1 0x0 PUSH2 0x17F DUP5 DUP3 DUP6 ADD PUSH2 0x146 JUMP JUMPDEST SWAP2 POP POP SWAP3 SWAP2 POP POP JUMP JUMPDEST PUSH1 0x0 DUP2 SWAP1 POP SWAP2 SWAP1 POP JUMP JUMPDEST PUSH2 0x1A3 PUSH2 0x19E DUP3 PUSH2 0x125 JUMP JUMPDEST PUSH2 0x188 JUMP JUMPDEST DUP3 MSTORE POP POP JUMP JUMPDEST PUSH1 0x0 PUSH20 0xFFFFFFFFFFFFFFFFFFFFFFFFFFFFFFFFFFFFFFFF DUP3 AND SWAP1 POP SWAP2 SWAP1 POP JUMP JUMPDEST PUSH1 0x0 PUSH2 0x1D4 DUP3 PUSH2 0x1A9 JUMP JUMPDEST SWAP1 POP SWAP2 SWAP1 POP JUMP JUMPDEST PUSH1 0x0 DUP2 PUSH1 0x60 SHL SWAP1 POP SWAP2 SWAP1 POP JUMP JUMPDEST PUSH1 0x0 PUSH2 0x1F3 DUP3 PUSH2 0x1DB JUMP JUMPDEST SWAP1 POP SWAP2 SWAP1 POP JUMP JUMPDEST PUSH1 0x0 PUSH2 0x205 DUP3 PUSH2 0x1E8 JUMP JUMPDEST SWAP1 POP SWAP2 SWAP1 POP JUMP JUMPDEST PUSH2 0x21D PUSH2 0x218 DUP3 PUSH2 0x1C9 JUMP JUMPDEST PUSH2 0x1FA JUMP JUMPDEST DUP3 MSTORE POP POP JUMP JUMPDEST PUSH1 0x0 PUSH2 0x22F DUP3 DUP6 PUSH2 0x192 JUMP JUMPDEST PUSH1 0x20 DUP3 ADD SWAP2 POP PUSH2 0x23F DUP3 DUP5 PUSH2 0x20C JUMP JUMPDEST PUSH1 0x14 DUP3 ADD SWAP2 POP DUP2 SWAP1 POP SWAP4 SWAP3 POP POP POP JUMP JUMPDEST PUSH32 0x4E487B7100000000000000000000000000000000000000000000000000000000 PUSH1 0x0 MSTORE PUSH1 0x12 PUSH1 0x4 MSTORE PUSH1 0x24 PUSH1 0x0 REVERT JUMPDEST PUSH1 0x0 PUSH2 0x289 DUP3 PUSH2 0x125 JUMP JUMPDEST SWAP2 POP PUSH2 0x294 DUP4 PUSH2 0x125 JUMP JUMPDEST SWAP3 POP DUP3 PUSH2 0x2A4 JUMPI PUSH2 0x2A3 PUSH2 0x24F JUMP JUMPDEST JUMPDEST DUP3 DUP3 MOD SWAP1 POP SWAP3 SWAP2 POP POP JUMP JUMPDEST PUSH32 0x4E487B7100000000000000000000000000000000000000000000000000000000 PUSH1 0x0 MSTORE PUSH1 0x11 PUSH1 0x4 MSTORE PUSH1 0x24 PUSH1 0x0 REVERT JUMPDEST PUSH1 0x0 PUSH2 0x2E9 DUP3 PUSH2 0x125 JUMP JUMPDEST SWAP2 POP PUSH2 0x2F4 DUP4 PUSH2 0x125 JUMP JUMPDEST SWAP3 POP DUP3 PUSH32 0xFFFFFFFFFFFFFFFFFFFFFFFFFFFFFFFFFFFFFFFFFFFFFFFFFFFFFFFFFFFFFFFF SUB DUP3 GT ISZERO PUSH2 0x329 JUMPI PUSH2 0x328 PUSH2 0x2AF JUMP JUMPDEST JUMPDEST DUP3 DUP3 ADD SWAP1 POP SWAP3 SWAP2 POP POP JUMP JUMPDEST PUSH2 0x33D DUP2 PUSH2 0x125 JUMP JUMPDEST DUP3 MSTORE POP POP JUMP JUMPDEST PUSH1 0x0 PUSH1 0x60 DUP3 ADD SWAP1 POP PUSH2 0x358 PUSH1 0x0 DUP4 ADD DUP7 PUSH2 0x334 JUMP JUMPDEST PUSH2 0x365 PUSH1 0x20 DUP4 ADD DUP6 PUSH2 0x334 JUMP JUMPDEST PUSH2 0x372 PUSH1 0x40 DUP4 ADD DUP5 PUSH2 0x334 JUMP JUMPDEST SWAP5 SWAP4 POP POP POP POP JUMP INVALID LOG2 PUSH5 0x6970667358 0x22 SLT KECCAK256 GASPRICE OR 0x2B PUSH19 0x975FA563D6FC7BB4A994438BF8A8B52232A9DB SWAP13 0xF9 0xB6 STATICCALL 0xE0 0xE2 SUB 0xBA REVERT PUSH5 0x736F6C6343 STOP ADDMOD SIGNEXTEND STOP CALLER "
		},
		"gasEstimates": {
			"creation": {
				"codeDepositCost": "188800",
				"executionCost": "232",
				"totalCost": "189032"
			},
			"external": {
				"guess(uint256)": "infinite"
			}
		},
		"methodIdentifiers": {
			"guess(uint256)": "9189fec1"
		}
	},
	"abi": [
		{
			"anonymous": false,
			"inputs": [
				{
					"indexed": false,
					"internalType": "uint256",
					"name": "randomNumber",
					"type": "uint256"
				},
				{
					"indexed": false,
					"internalType": "uint256",
					"name": "guessNumber",
					"type": "uint256"
				},
				{
					"indexed": false,
					"internalType": "uint256",
					"name": "prize",
					"type": "uint256"
				}
			],
			"name": "Number",
			"type": "event"
		},
		{
			"inputs": [
				{
					"internalType": "uint256",
					"name": "guessNumber",
					"type": "uint256"
				}
			],
			"name": "guess",
			"outputs": [],
			"stateMutability": "payable",
			"type": "function"
		}
	]
}